:020000040800F2
:10000000F00400200101000803160008CD130008C9
:1000100001160008990100080D1C000800000000EE
:100020000000000000000000000000003B18000875
:100030009B01000800000000251600083D1800087C
:100040001B0100081B0100081B0100081B01000820
:100050001B0100081B0100081B0100081B01000810
:100060001B0100081B0100081B0100081B01000800
:100070001B0100081B0100081B0100081B010008F0
:100080001B0100081B0100081B0100081B010008E0
:100090001B0100081B0100081B0100081B010008D0
:1000A0001B0100081B0100081B0100081B010008C0
:1000B0001B0100081B010008000000001B010008D4
:1000C0001B01000800000000000000001B010008E8
:1000D00000000000011C00081B01000800000000D7
:1000E0001B0100081B0100081B010008DFF80CD0F1
:1000F00000F040F800480047A51F0008F004002069
:100100000648804706480047FEE7FEE7FEE7FEE7B1
:10011000FEE7FEE7FEE7FEE7FEE7FEE7BD180008A4
:10012000ED000008D2B201E000F8012B491EFBD21D
:1001300070470022F6E710B513460A4604461946F2
:10014000FFF7F0FF204610BD30B50B4601460020FA
:100150002022012409E021FA02F59D4205D303FA89
:1001600002F5491B04FA02F52844151EA2F101020A
:10017000F1DC30BD064C074D06E0E06840F00103BD
:1001800094E8070098471034AC42F6D3FFF7B2FF6B
:10019000D0220008F0220008FEE7704710B590F862
:1001A00021100024022903D00421816301243DE0B1
:1001B00001680A6822F00E020A6001680A6822F0EB
:1001C00001020A601A4A0168914201D1012121E02D
:1001D000174A1432914201D110211BE0144A2832EF
:1001E000914201D1891515E0114A3C32914201D169
:1001F00089140FE00E4A5032914202D14FF48031FF
:1002000008E00B4A6432914202D14FF4801101E0C0
:100210004FF08071064A083A5160012180F82110A0
:10022000002180F82010416B01B18847204610BDA5
:100230000800024070B5044600F0F2F80546601C64
:1002400002D004480078044400F0EAF8401BA042C1
:10025000FAD370BD000000202DE9F84FDFF894A11B
:1002600000220AF1040B14464FF0010C4FF00F0965
:100270000BF1040E0B680CFA04F52B40AB4271D164
:100280005D4E4F68A7EB0608B7422BD00DDC032F5D
:1002900034D005DC37B3012F19D0022F2FD11BE04A
:1002A000112F16D0122F2AD119E0B8F5881F19D0B6
:1002B00006DCB8F5803F15D0B8F5801F1FD111E0DE
:1002C000B8F5001F0ED0B8F5041F18D10AE0CA68AF
:1002D00015E0CA68121D12E0CA6808320FE0CA6849
:1002E0000C320CE08A682AB1012A4FF0080203D0D0
:1002F000456104E0042202E0056100E00022FF2BDA
:1003000001D8074601E000F104074FEA840601D94D
:10031000A6F120063D6809FA06F825EA080502FA62
:1003200006F645EA06053D604D68ED005CD5334DA7
:10033000AE6946F00106AE61AD6924F0030605F032
:10034000010500952E4D7719BD68A607360F09FAED
:1003500006F825EA0805DFF8AC80404503D14FF0E8
:10036000000810E040E0DFF8A080404502D14FF0E7
:10037000010808E0DFF89480404502D14FF0020800
:1003800001E04FF0030808FA06F848EA0508C7F844
:1003900008804D68ED0305D5DAF800501D43CAF812
:1003A000005004E0DAF800609E43CAF800604D682F
:1003B000DBF80060AD035D4601D51E4300E09E43BF
:1003C0002E604D68DEF80060ED02754601D51E43D3
:1003D00000E09E432E604D68AD020D4D2E6801D5A4
:1003E0001E4300E09E432E60641C102CFFF442AFBD
:1003F000BDE8F88F00040140000011100010024019
:100400000000014000080140000C014000100140C4
:100410000C0401400AB1016170470904FBE70000C8
:100420000148806870470000000000200248816891
:10043000027811448160704700000020074810B521
:10044000016841F010010160032000F095F80020E0
:1004500000F006F800F024F8002010BD0020024053
:1004600070B50D4D04464FF47A712878B1FBF0F069
:100470000A490968B1FBF0F000F0E8FD48B9102C1A
:1004800007D200222146501E00F056F800206C6072
:1004900070BD012070BD0000000000200C00002095
:1004A0001D4808B5816941F001018161806900F052
:1004B00001000090032000F05FF8002211466FF069
:1004C0000B0000F039F8002211466FF00A0000F02E
:1004D00033F8002211466FF0090000F02DF80022D9
:1004E0001146501F00F028F800221146101F00F09E
:1004F00023F800221146901E00F01EF8002211463B
:10050000501E00F019F80548416821F0E06141F003
:100510000071416008BD0000001002400000014071
:1005200000F01F02012191404009800000F1E0200D
:10053000C0F8001170470000F0B40E4B1B680C4669
:10054000C3F30223C3F10705042D00D90425191DA7
:10055000072901D2002300E0DB1E012606FA05F17F
:10056000491E214099409E40761E16403143F0BC02
:1005700001F048B80CED00E0064900F007020868F9
:100580004FF6FF03184040EA0220034A1043086078
:10059000704700000CED00E00000FA050149012061
:1005A0000862704700000E4210B529A401461DCC18
:1005B00086B08DE81D002AA02A4C00680490002017
:1005C000012923D002293AD010291DD1616822685F
:1005D000D20119D5C1F38342C9031DF8020009D520
:1005E000616804AAC1F34041515C1F4AB2FBF1F1BA
:1005F000484301E01D4948436168490204D4400072
:100600005FF00301B0FBF1F006B010BD226AC2F347
:100610000121012903D1920701D5C803F4E702297A
:1006200005D1626A920702D549F64040ECE70329FA
:10063000EAD121688903E7D54FF22440E4E700F0CE
:100640004DF96168C1F38131491C4900DAE70000C6
:1006500002030405060708090A0B0C0D0E0F101003
:10066000010200000010024000127A0000093D0063
:100670002DE9F84305460078354CC00754D0E069B1
:100680000026C00008D4E06940F08050E061E069D5
:10069000012600F0805000902E480168C90512D450
:1006A0000168804641F480710160FFF7B9FE07469A
:1006B00005E000BFFFF7B4FEC01B642823D8D8F8BC
:1006C0000000C005F6D5206A10F4407021D0A9883A
:1006D00001F4407181421CD0206A1F49012220F49C
:1006E00040700A6000220A602062C00711D0FFF744
:1006F00097FE074641F2883808E000BFFFF790FEFA
:10070000C11B414502D90320BDE8F883206A800758
:10071000F4D5206A696820F44070084320621EB155
:10072000E06920F08050E0612878800705D5606896
:10073000A96820F44040084360602878C00605D5C9
:100740006068E96820F48000084360600020DBE70F
:100750000010024000700040400442422DE9F04782
:10076000DFF83C8105460E46D8F8000000F007008F
:10077000B0420CD2D8F8001021F007013143C8F87C
:100780000010D8F8000000F00700B04263D12878CC
:10079000444C800705D56068A96820F0F000084344
:1007A00060602878C00745D06868012816D02168A5
:1007B000022816D0890700294DDA616821F003016B
:1007C00001436160FFF72CFE6968074641F28830FB
:1007D00001290FD00229814619D027E02168890319
:1007E000E9E78901E7E700BFFFF71AFEC11B4945AA
:1007F00001D918E081466068C0F381000128F3D177
:1008000018E000BFFFF70CFEC11B49450BD860681C
:10081000C0F381000228F5D10CE000BFFFF700FE15
:10082000C11B494502D90320BDE8F087606810F07C
:100830000C0FF3D1D8F80010404601F00701B14287
:100840000BD9016821F0070131430160006800F015
:100850000700B04201D00120E6E72878400705D51F
:100860006068E96820F4E060084360602878000769
:1008700006D56068296920F4605040EAC1006060D4
:1008800000F03CF86168084AC1F30311515CC840AC
:10089000064908600020FFF7E3FD0020C4E70000E0
:1008A0000020024000100240B82200080C00002086
:1008B00001480068704700000C000020044805490A
:1008C00000684968044AC1F30221515CC84070477E
:1008D0000C00002000100240C8220008044805490E
:1008E00000684968044AC1F3C221515CC84070479E
:1008F0000C00002000100240C822000812A185B0A0
:100900000FC98DE80F0014A0144A006804905168C4
:10091000134801F00C03042B10D0082B0ED1C1F3A7
:100920008343C9031DF803000AD5516804AAC1F323
:100930004041515C0A4A5043B0FBF1F005B07047AA
:1009400008494843FAE700000203040506070809BE
:100950000A0B0C0D0E0F10100102000000100240D7
:1009600000127A0000093D002DE9F84F0446007896
:10097000B94DC00748D06868C0F38100012807D08E
:100980006868C0F38100022809D16868C00306D5F1
:100990002868800338D5606800286FD034E060682C
:1009A000B0F5803F0BD010B1B0F5A02F11D0286862
:1009B00020F480302860286820F4802002E0286835
:1009C00040F480302860606888B1FFF729FD064652
:1009D00009E0286840F480202860F0E7FFF720FD58
:1009E000801B642875D828688003F7D50CE0FFF7D2
:1009F00017FD064605E000BFFFF712FD801B6428C7
:100A0000F0D828688003F7D42078944E80074FF000
:100A100001094FF000083BD5686810F00C0F07D0B3
:100A20006868C0F38100022809D16868C00306D451
:100A30002868800714D5206901281FD110E020699B
:100A4000B0B1C6F80090FFF7EBFC074605E000BF29
:100A5000FFF7E6FCC01B0228C4D828688007F7D53A
:100A60002868616920F0F80040EAC10028600FE0C2
:100A7000C6F80080FFF7D4FC074606E0E9E000BFB7
:100A8000FFF7CEFCC01B022823D828688007F7D4C4
:100A9000207800072CD57248A169D9B1C0F8009020
:100AA000FFF7BEFC074604E0FFF7BAFCC01B0228B4
:100AB0000FD8686A8007F7D56A484FF4FA51006882
:100AC000B0FBF1F0009000BF0098411E0091FAD2F7
:100AD0000EE080E0C0F80080FFF7A2FC074604E0CB
:100AE000FFF79EFCC01B022875D8686A8007F7D400
:100AF0002078400760D5E8690027C00008D4E8697D
:100B000040F08050E861E869012700F080500090D3
:100B100055480168C90513D40168834641F48071C2
:100B20000160FFF77DFC824606E000BFFFF778FC1E
:100B3000A0EB0A0064284ED8DBF80000C005F5D50C
:100B4000E06801280AD008B1052813D0286A20F0EF
:100B500001002862286A20F0040002E0286A40F0C0
:100B600001002862E06841F2883B98B1FFF758FC29
:100B700082460BE0286A40F004002862EEE700BFDE
:100B8000FFF74EFCA0EB0A0159455AD8286A8007A6
:100B9000F6D50CE0FFF744FC824605E0FFF740FC89
:100BA000A0EB0A0159454CD8286A8007F6D41FB13A
:100BB000E86920F08050E861E06988B36968C1F3B2
:100BC0008101022945D00228C6F8608004D0FFF7D1
:100BD00027FC044638E034E0FFF722FC074604E037
:100BE000FFF71EFCC01B02282BD828688001F7D411
:100BF000206AB0F5803F05D16868A16820F4003014
:100C000008436860D4E908010843696821F4741155
:100C100008436860C6F86090FFF702FC044606E0EF
:100C200015E000BFFFF7FCFB001B022809D828686D
:100C30008001F7D50BE000BFFFF7F2FB001B022895
:100C400002D90320BDE8F88F28688001F4D4002081
:100C5000F8E70120F6E700000010024000004242E1
:100C6000800442420C00002000700040024850F80E
:100C7000210080B270470000006C0040024800EB89
:100C8000810091B201607047006C0040F8B505002A
:100C90004FF0000016460C46009006D02CB1002202
:100CA0006946284600F019F808B10120F8BD287BF4
:100CB0002070E87BE070697B6170A97BA17056B100
:100CC00000F0BAFCE070607800F0B6FC6070A078CC
:100CD00000F0B2FCA0700020F8BD2DE9F04791466D
:100CE0000C465FEA00084AD084B3D8F80000406898
:100CF000400744D4404600F03DFD4FF46162054694
:100D0000B0FBF2F1B0FBF2F302FB13503C23B0FB5B
:100D1000F3F0B5FBF2F6607002FB1650B0FBF3F295
:100D200003FB1200A070182931D31820B1FBF0F793
:100D3000B1FBF0F200FB12102070404600F013FDF2
:100D4000411C04D0A84202D9461B02E017E04FF034
:100D5000FF36A7EB071000EB4000C0EB001005EBDF
:100D6000C0152946404600F054FD40B9701C01D022
:100D7000711900E03146404600F037FD10B1012006
:100D8000BDE8F0873946404600F061FC00E0217084
:100D9000B9F1000F0BD0207800F04EFC2070607885
:100DA00000F04AFC6070A07800F046FCA0700020C3
:100DB000E6E7000070B5040003D0607C002610B1A7
:100DC00005E0012070BD2674204600F043F80220A3
:100DD0006074204600F010F9042578BB204600F02E
:100DE0008DFC58BB2068416821F007014160A06874
:100DF00020B11748016821F0010101601448001F6B
:100E00000168A26821F46071114301606068411CAF
:100E100004D10120FFF7C8FB80B1401E21688A6819
:100E200022F00F0242EA10428A602168CA6860F329
:100E30000F02CA60204600F07BFC08B16574C0E771
:100E4000E67301206073A0736074002070BD000021
:100E5000306C004008B50068084988420DD1FFF7A2
:100E60009DFB0748C16941F00061C161C069054946
:100E700000F0006000900120086008BD00280040DC
:100E8000001002403C0442422DE9F0410D460400AE
:100E90003BD0C5B3207C01283AD04FF0010884F83C
:100EA000108002206074E87872B300F0BCFBE0733D
:100EB000687800F0B8FB6073A87800F0B4FBA0730A
:100EC000C2B2617BE07B00F065FC20732870204695
:100ED00000F050FC4FF46161B0FBF1F100251829DE
:100EE0002DD91822B1FBF2F1A1EB011101EB410167
:100EF000C1EB011100EBC1163146204600F089FC20
:100F00000427C8B90BE000E004E00120BDE8F0814F
:100F10000220FBE7E07368786073A878CFE720468B
:100F200000F021FC411C0AD0B04208D2064901441D
:100F3000204600F05AFC10B167742574E5E784F888
:100F4000118025740020E1E7805101002DE9F04176
:100F50000D46040024D01DB3207C012823D04FF07F
:100F6000010884F81080022060742878EAB100F04B
:100F70005AFB4FF4616100FB01F6687800F053FB07
:100F8000C0EB001006EB8006A87800F04CFB35188B
:100F90002946204600F03DFC0026042710BB0FE048
:100FA0000120BDE8F0810220FBE74FF46161484376
:100FB0006978C1EB011100EB8100A9784518E7E7DA
:100FC0002068416821F005014160204600F0CBFB1C
:100FD000411C0AD0A84208D206490144204600F02C
:100FE00004FC10B167742674DAE784F81180267463
:100FF0000020D6E78051010070B504000AD02068B7
:10100000416821F008014160FFF70AFA05464FF4F4
:101010007A7608E0012070BDFFF702FA401BB0426B
:1010200001D9032070BD206840680007F4D5002076
:1010300070BD4FF0E0210428086903D020F00400BF
:101040000861704740F00400FAE7704710B5401E91
:10105000B0F1807F01D3012010BD4FF0E02460612A
:101060000F21601700F0CEFA0020A0610720206158
:10107000002010BD10B5FFF7E8FF10BD704700005D
:1010800070B5026804461068D168536910F00F0FFC
:1010900050D003F0010501F4907635435DD0C207CE
:1010A00005D0CA0503D5E26B42F00102E2634207B4
:1010B00005D5DA0703D0E26B42F00202E263820751
:1010C00005D5DA0703D0E26B42F00402E2630207BF
:1010D00005D5DA0703D0E26B42F00802E263E26B67
:1010E000002A33D0800604D5880602D5204600F0B9
:1010F0001FFC20684069E16BC0F38010090700D431
:1011000028B3204600F006FC2068416949061AD53C
:10111000416921F040014161606BA0B11B4941630D
:10112000606BFFF73BF8002810D0606B416BBDE8A7
:1011300070400847830610D58B060ED52046BDE8C3
:10114000704000F0F5BB2046FFF798FF70BD2046C9
:10115000FFF794FF0020E06370BD030606D50B0681
:1011600004D52046BDE8704000F0E6BC4006F3D54B
:101170004806F1D5D168204621F04001D1602021F8
:1011800084F8391000F021F970BD0000051900083D
:1011900070B5040004D094F83900002510B106E0C1
:1011A000012070BD84F83850204600F023F8242038
:1011B00084F839002068C16821F40051C1602046DC
:1011C00000F002FC2068016921F49041016120686F
:1011D000416921F02A0141612068C16841F4005150
:1011E000C160E563202084F8390084F83A000020CB
:1011F00070BD000010B50068154986B0884225D141
:101200001448816941F4804181618069124C00F485
:10121000804004904FF40070009002200190032061
:10122000039069462046FFF717F800212015CDE905
:101230000001029169462046FFF70EF80022114690
:101240002520FFF779F92520FFF76AF906B010BDD0
:1012500000380140001002400008014090F83A3088
:10126000202B22D1F9B1F2B190F83830012B1CD0EB
:1012700081628285C2850021C163222280F83A20E2
:1012800080F838100168CA6842F48072CA60016848
:101290004A6942F001024A610068C16841F02001D8
:1012A000C160002070470120704702207047000095
:1012B00010B500681349884222D1134813490278B7
:1012C000CA7102790A7242788378120442EA0322D0
:1012D000C0784FF4FA7302430A610B490522A1F169
:1012E000600000F015F808480021743805224167B5
:1012F0008167C167BDE8104003491430FFF7AEBFF6
:1013000010BD0000003801409800002010000020AF
:101310002DE9F843044690F839001F4616460D465D
:10132000202850D1A5B19EB194F8380001284AD0A8
:10133000012084F838004FF00008C4F83C802120D8
:1013400084F83900FFF76CF8A6848146E68426E02D
:101350000120BDE8F883E08C401EE084A0684B4685
:10136000B0F5805F4FF000024FF0800120460097FB
:1013700003D000F012FCE8B90DE000F00EFCC8B993
:1013800028882168C0F308004860206908B16D1CF6
:1013900005E0AD1C03E0216815F8010B4860E08C06
:1013A0000028D8D14B46002240212046009700F06B
:1013B000F4FB08B10320CCE7202084F8390084F83E
:1013C00038800020C5E70220C3E77047FEE7000031
:1013D00010B5094C012240212046FFF71BF80120DF
:1013E000FEF728FF002240212046FFF713F8BDE852
:1013F00010400120FEF71EBF0008014019B1C030A7
:10140000C0B200F06BB88030FAE7000010B50020E1
:1014100000F044F8002220210F48FEF7FBFF0320D4
:1014200000F03CF8FFF7D4FFFFF7D2FFFFF7D0FF43
:10143000022000F033F8FFF7CBFF282000F04EF831
:101440000C2000F04BF8062000F048F8BDE81040F2
:10145000012000F043B800000008014070B5084CBE
:101460000546012220212046FEF7D4FF284600F041
:1014700035F82046BDE8704000222021FEF7CABFA3
:101480000008014010B5044603E000BFFFF7E6FF87
:10149000641C20780028F9D110BD000070B50E4DF5
:1014A000044600F0010210212846FEF7B3FFC4F302
:1014B000400220212846FEF7ADFFC4F38002402100
:1014C0002846FEF7A7FFC4F3C0022846BDE87040D7
:1014D0008021FEF79FBF0000000C014010B50446BC
:1014E0000009FFF7DBFFFFF773FF2046FFF7D6FF8A
:1014F000BDE81040FFF76CBFF0B51D4885B08169AD
:1015000041F020018161816901F02001049181692C
:1015100041F004018161816901F004010491816954
:1015200041F0080181618069124E00F008000490CA
:10153000002267213046FEF76DFF0F4F0022F02199
:101540003846FEF767FF67200124CDE90004022535
:10155000694603953046FEF77FFEF020CDE9000492
:10156000694603953846FEF777FE05B0F0BD0000EA
:101570000010024000080140000C01407CB51F48EB
:101580001D4901604FF0FF3141604FF4807181606F
:10159000FFF710FC00B1FEE701211848FFF766FBDA
:1015A00043F2F225A84225D001248DF80440002002
:1015B0008DF805008DF80600224601A90F48FFF7B7
:1015C000C5FC00B1FEE78DF8004002208DF8010057
:1015D00028208DF8020020208DF8030001226946A2
:1015E0000648FFF751FC00B1FEE72A4601210348F7
:1015F000FFF744FB7CBD00000028004024000020D1
:10160000FEE770470907090E002806DA00F00F0010
:1016100000F1E02080F8141D704700F1E02080F810
:10162000001470477047010901EB810100F00F00C1
:1016300000EB4100C0B27047002102E00A38C0B29E
:10164000491C0A28FAD2090740EA116070472DE9BF
:10165000F04104460025C07B627BA37B42E0012A67
:1016600016D0032A14D0052A12D0072A10D0082A2F
:101670000ED00A2A0CD00C2A0AD0042A10D0062A2E
:101680000ED0092A0CD00B2A0AD0022A0DD028E04D
:101690001F2B0CD30C2A05D101221346401C20E03D
:1016A0001E2B04D30123521C1BE01C2B02D203F17E
:1016B000010316E011D183B29E0710D16426B3FB5B
:1016C000F6F706FB173636B94FF4C876B3FBF6F7D4
:1016D00006FB17331BB91D2303E01D2B01D1032289
:1016E00001236D1C8D42BAD3D1B2E0736173DAB2BB
:1016F000A27300F04FF82073BDE8F08170B5044686
:10170000FEF78EFE05464FF47A7606E0FEF788FE79
:10171000401BB04201D9032070BD2068406880069C
:10172000F4D52068416841F010014160002070BD8F
:1017300070B504460068416821F010014160FEF771
:101740006FFE05464FF47A7607E000BFFEF768FEAD
:10175000401BB04201D9032070BD2068406880065C
:10176000F4D5002070BD0168086A496A89B241EA6F
:1017700000407047006881698AB2C1698BB2816993
:1017800089B28A4203D0C06961F31F40704743EABF
:1017900002407047F0B56424C1EBC1030927A500DE
:1017A000072603EB01130329B3FBF7F100F5FA60F9
:1017B000114401440AD2401EB0FBF4F201EB900147
:1017C000B0FBF5F0891A0844001D08E0B0FBF4F204
:1017D00001EB9001B0FBF5F0891A0844801CB0FBC6
:1017E000F6F106FB1100C0B2F0BD70B50D4606461D
:1017F0000024FFF783FF48B93168280C086231687C
:10180000A8B248623046FFF793FF00B1012420469A
:1018100070BD70B50D4606460024FFF76FFF48B94E
:101820003168280C88613168A8B2C8613046FFF77A
:101830007FFF00B10124204670BD704710B5FEF750
:10184000F5FDBDE81040FFF715BC30B593B0092099
:1018500000904FF480300190012400256846CDE9C6
:101860000645FFF781F800B1FEE70AA90F2081E8DD
:1018700031004FF48060CDE90D0500210AA8FEF784
:101880006DFF00B1FEE74FF40070CDE90F400FA8E7
:10189000FEF7EEFE00B1FEE7FFF70AF84FF47A71AB
:1018A000B0FBF1F0FFF7D2FB0420FFF7C2FB0022F0
:1018B0001146501EFEF740FE13B030BD0D480168C2
:1018C00041F00101016041680B4A1140416001682B
:1018D0000A4A11400160016821F4802101604168D9
:1018E00021F4FE0141604FF41F0181600449C003EF
:1018F00008607047001002400000FFF8FFFFF6FE8E
:1019000008ED00E010B5406A0021C185C184FFF7F1
:10191000B5FB10BD0168CA6822F49072CA60016804
:101920004A6922F001024A61202180F83A1070478A
:1019300010B590F83A10222901D0022010BD81681C
:10194000B1F5805F11D00169002901681FD0496895
:1019500001F07F03816A4A1C82620B70C18D491EAF
:101960000904090CC18518D02BE00269816A002A9C
:101970000268526805D0D2B20A80816A491C81622D
:10198000ECE7C2F308020A80816A891CF7E74A681B
:10199000816A4B1C83620A70E0E70168CA6822F022
:1019A0002002CA600168CA6822F48072CA600168B5
:1019B0004A6922F001024A61202180F83A10FFF7BB
:1019C00077FC002010BD00002DE9F04104460068BE
:1019D0000169E26821F44051114301612169A06865
:1019E0000843616908432168CA6841F20C639A435D
:1019F0000243CA6020684169A26921F44071114321
:101A000041614C4920686425322688423CD1FEF76A
:101A100065FF00EBC00101EB001061688900B0FBBD
:101A2000F1F7FEF75BFF00EBC00101EB001061680E
:101A3000B0468900B0FBF1F0B0FBF5F06FF0180193
:101A4000484307EB800106EB0110B0FBF5F000F016
:101A5000F006FEF743FF00EBC00101EB00106168E8
:101A60008900B0FBF1F0B0FBF5F006EB0016FEF7D5
:101A700035FF00EBC00101EB001061688900B0FB8D
:101A8000F1F7FEF72BFF3BE0FEF718FF00EBC0017C
:101A900001EB001061688900B0FBF1F7FEF70EFF63
:101AA00000EBC00101EB00106168B0468900B0FB9B
:101AB000F1F0B0FBF5F06FF01801484307EB80013F
:101AC00006EB0110B0FBF5F000F0F006FEF7F6FEB5
:101AD00000EBC00101EB001061688900B0FBF1F080
:101AE000B0FBF5F006EB0016FEF7E8FE00EBC001D8
:101AF00001EB001061688900B0FBF1F7FEF7DEFE34
:101B000000EBC00101EB001061688900B0FBF1F04F
:101B1000B0FBF5F06FF01801484307EB800108EBCC
:101B20000110B0FBF5F0216800F00F003044886030
:101B3000BDE8F0810038014090F83910212901D02A
:101B4000022070478168B1F5805F016A0BD04A1CA2
:101B50000262026809785160C18C491E0904090CAF
:101B6000C1840ED017E009880268C1F308015160F2
:101B700001690029016A02D0491C0162ECE7891C55
:101B8000FBE70168CA6822F08002CA600068C16889
:101B900041F04001C160002070472DE9F0419846B6
:101BA00017460E460446069D1DE0681C1BD02DB14D
:101BB000FEF736FCA0EB0800A84214D92068C168E3
:101BC00021F4D071C1602068416921F001014161B7
:101BD000202084F8390084F83A00002084F8380086
:101BE0000320BDE8F0812068006836EA000004D0D8
:101BF0000020B842D9D00020F3E70120F9E7000027
:101C00000148FFF73DBA000038000020FEE7000061
:101C10000FB4084B10B504A902AA039800F01CF8F1
:101C2000044602A9002000F0B8F9204610BC5DF877
:101C300014FB00009B1F000802E008C8121F08C127
:101C4000002AFAD170477047002001E001C1121F3D
:101C5000002AFBD1704700002DE9FF4F8BB088466A
:101C60000546002606E025280BD0DDE90D12904739
:101C70006D1C761C28780028F5D10FB03046BDE8E1
:101C8000F08F0024A146A2460122AE4900E00443A1
:101C900015F8013F203B02FA03F00842F7D12878FB
:101CA0002A2810D06FF02F022878A0F130010929DE
:101CB00015D809EB890102EB410144F0020400EB65
:101CC00001096D1CF0E758F8041B5FEA010903D510
:101CD00044F40054C9F1000944F002046D1C287852
:101CE0002E2817D115F8010F44F004042A280ED02D
:101CF0006FF02F022878A0F1300109290AD80AEBE9
:101D00008A0102EB410100EB010A6D1CF2E758F871
:101D100004AB6D1C28786C280FD006DC4C2817D03B
:101D200068280DD06A2814D104E0742810D07A28CD
:101D30000FD10DE044F400140AE044F4801401E0F3
:101D400044F440146978814202D104F580146D1C7A
:101D50006D1C2878692865D006DC00288DD06328A2
:101D600027D0642806D15DE06E2808D073282AD0D9
:101D7000752877D0DDE90D129047761CE0E0C4F3BA
:101D80000250022809D003280DD0D8F800100428EA
:101D90000DD00E6008F10408D2E0D8F80010F21758
:101DA000C1E90062F6E7D8F800100E80F2E70E7085
:101DB000F0E718F8041B8DF8001000208DF80100E2
:101DC000EB46012003E058F804BB4FF0FF306107F9
:101DD0004FF0000701D40AE07F1C57450DDA874217
:101DE000FADB1BF807100029F6D106E07F1C8742BA
:101DF000FCDB1BF807100029F8D1DDE90D23A9EB66
:101E000007008146214600F0B1F83044C61904E0CD
:101E1000DDE90D121BF8010B90477F1EF8D2214619
:101E2000484688E058F8040BC4F302514FF00A0BFF
:101E3000032900D100B2042900D140B2002802DAFF
:101E400040422D2102E0210505D52B218DF82410DB
:101E5000012104E006E0E10710D02021F6E708AFF9
:101E6000089113E058F8040BC4F302514FF00A0B29
:101E7000032900D180B2042900D1C0B20021EEE7CD
:101E80005946FEF761F9303107F8011D0028F7D1F6
:101E9000ADEB070000F1200B600702D524F480347D
:101EA00001E04FF0010ADA4502DDAAEB0B0000E089
:101EB0000020824600EB0B0108980144A9EB0100C9
:101EC0000A90E00306D4DDE90D2321460A9800F0CC
:101ED0004DF806444FF0000908E009A911F809007F
:101EE000DDE90D12904709F10109761C0899894531
:101EF000F3DBE0030CD5DDE90D2321460A9800F061
:101F000035F8064404E0DDE90D1230209047761CD8
:101F1000BAF10001AAF1010AF5DC05E0DDE90D12D4
:101F200017F8010B9047761CBBF10001ABF1010BD8
:101F3000F4DC0A982146DDE90D2300F005F806449B
:101F40006D1C97E6092801002DE9F04104460025A3
:101F50001E461746880404D405E039462020B047C1
:101F60006D1C641EF9D52846BDE8F0812DE9F041CD
:101F7000044600251E469046C80301D5302700E0E0
:101F80002027880404D505E041463846B0476D1C3B
:101F9000641EF9D52846BDE8F0810A68531C0B6021
:101FA0001070704708B5FEF749FAFFF74EFCFFF7CF
:101FB000A3FA724870490C2201604FF41651416037
:101FC00000218160C160C0E904128161C161FFF735
:101FD000DFF800B1FEE7FFF7D1FAFFF717FA67491C
:101FE000052260316548FFF739F9DFF890A10AF161
:101FF0006C0A0AF10C0606F10C0806F1180B06F142
:10200000240706F130095D4820214030FEF791F8A1
:102010005A4800225A491438FEF75FFE584957487B
:102020000022C91C1438FEF731FE5548A0F10904FE
:1020300081782170437863700278C01CA270857823
:1020400025710578E57045786571C078A0714B48B9
:1020500000914CA14030FFF7DBFD00210846FFF75F
:10206000CDF946484030FFF70DFA44482021403072
:10207000FEF75FF8A079009040486379227947A184
:102080004030FFF7C5FD01210020FFF7B7F93B48BD
:102090004030FFF7F7F900F08FF8A0786178C0EBD7
:1020A000001001EB80002178C0EB001001EB8005EF
:1020B0005FF000045AF8240028B956F8241011B92A
:1020C00058F8241009B356F82410C0EB001001EBA7
:1020D0008000C0EB001158F8240000EB810085421D
:1020E00013D3801C854210D224B1012C05D0022CC0
:1020F0000BD105E00122114604E00122022101E09A
:10210000012204212B48FEF785F95BF8240028B949
:1021100057F8241011B959F8241029B357F824108E
:10212000C0EB001001EB8000C0EB001159F8240057
:1021300000EB8100854217D3801C854214D224B164
:10214000012C09D0022C0FD109E0002201211948ED
:10215000FEF760F90124ADE70022022101E0002230
:1021600004211448FEF756F9641C032CA2DB4FF43B
:102170009670FEF75FF846E700380140380000200F
:102180001900002054696D652020253032643A25FD
:102190003032643A253032640000000044617465D6
:1021A00020253032642F253032642F3230253032F2
:1021B00064000000000801402DE9F0473A49C87961
:1021C00000284AD0394D00246E1CAF1C8846F128E7
:1021D00020D1CC71D8F81000DFF8D490A84205D1F6
:1021E00098F8082001214846FEF714F9D8F81000A5
:1021F000B04205D198F8082002214846FEF70AF9B6
:10220000D8F81010B94205D198F8082004214846A2
:10221000FEF700F998F807104046E1290FD0E229AF
:102220001DD0E32920D0D12923D0D22930D0D329E1
:1022300013D1C4711F490269AA4232D004E01D497A
:10224000C4713C390269F7E7B24201D1037A4B60AD
:10225000BA4202D198F808008860BDE8F087154AB4
:10226000C471303A016917E0124AC471243A016915
:1022700012E0104AC471183A01690DE0B14201D16F
:10228000037A5360B942E8D198F808009060E4E717
:10229000C471084A01690C3AA942EFD1037A13606C
:1022A000ECE7037A0B60CFE7100000200106160070
:1022B00000080140E00000200000000000000000D5
:1022C00001020304060708090000000001020304DC
:1022D000F02200080000002024000000381C000844
:1022E0001423000824000020CC040000481C00082F
:1022F00001000000100000000000000000A24A04DD
:1023000000000000000000000000000000000000CD
:0423100000000000C9
:04000005080000ED02
:00000001FF
